:100000000C945D000C94D9030C94B2030C948500FD
:100010000C9485000C9485000C9485000C9485004C
:100020000C9485000C9485000C9485000C9485003C
:100030000C9400040C9485000C9485000C948500AD
:100040000C9468030C9485000C9436030C941003F4
:100050000C9485000C9485000C9485000C9485000C
:100060000C9485000C9485000000000025002800F9
:100070002B0000000008000201000003040700003C
:1000800000000000000000000000240027002A00FB
:10009000010204081020408001020408102001021F
:1000A00004081020040404040404040402020202EC
:1000B00002020303030303031E0411241FBECFEF38
:1000C000D8E0DEBFCDBF11E0A0E0B1E0EAEEF7E19D
:1000D00002C005900D92AC32B107D9F722E0ACE234
:1000E000B1E001C01D92AC32B207E1F710E0CDE5FE
:1000F000D0E004C02197FE010E94AC09CC35D107A5
:10010000C9F70E94B3040C94F30B0C9400008AE826
:1001100092E000000000000000000197D1F710926B
:1001200085001092840080910401909105019093C4
:100130008B0080938A0091E090932D0180912C0197
:100140008F5F80932C0180912C018F7011F490931C
:1001500034010895CF92DF92EF92FF920F931F9395
:10016000CF93DF936C017A018B01C0E0D0E0CE1514
:10017000DF0589F0D8016D918D01D601ED91FC91DB
:100180000190F081E02DC6010995892B11F47E01C3
:1001900002C02196ECCFC701DF91CF911F910F9143
:1001A000FF90EF90DF90CF900895FC01918D828DAC
:1001B000981761F0828DDF01A80FB11D5D968C91BB
:1001C000928D9F5F9F73928F90E008958FEF9FEFC6
:1001D0000895FC01918D828D981731F0828DE80F82
:1001E000F11D858D90E008958FEF9FEF0895FC013C
:1001F000918D228D892F90E0805C9F4F821B910909
:100200008F739927089586E491E00E94F70021E01A
:10021000892B09F420E0822F0895FC01848DDF01F1
:10022000A80FB11DA35ABF4F2C91848D90E0019669
:100230008F739927848FA689B7892C93A089B18958
:100240008C9180648C93938D848D981306C0028862
:10025000F389E02D80818F7D80830895EF92FF9256
:100260000F931F93CF93DF93EC0181E0888F9B8DD9
:100270008C8D981305C0E889F989808185FD24C09B
:10028000F62E0B8D10E00F5F1F4F0F731127E02E1E
:100290008C8DE8120CC00FB607FCFACFE889F989FB
:1002A000808185FFF5CFCE010E940D01F1CF8B8DAE
:1002B000FE01E80FF11DE35AFF4FF0820B8FEA8930
:1002C000FB898081806207C0EE89FF896083E889AD
:1002D000F98980818064808381E090E0DF91CF9113
:1002E0001F910F91FF90EF900895CF93DF93EC0152
:1002F000888D8823C9F0EA89FB89808185FD05C046
:10030000A889B9898C9186FD0FC00FB607FCF5CF7F
:10031000808185FFF2CFA889B9898C9185FFEDCFC7
:10032000CE010E940D01E7CFDF91CF91089580E0CB
:1003300090E0892B29F00E94030181110C940000A8
:100340000895CF93DF9390E0FC01E057FF4F249195
:10035000FC01EC55FF4F8491882361F190E0880FF8
:10036000991FFC01EA57FF4FC591D491FC01E85950
:10037000FF4FA591B491611109C09FB7F89488818E
:10038000209582238883EC912E230BC0623061F488
:100390009FB7F8943881822F809583238883EC91CE
:1003A0002E2B2C939FBF06C08FB7F894E8812E2B7D
:1003B00028838FBFDF91CF9108950895009769F04A
:1003C000FC0101900020E9F73197AF01481B590B60
:1003D000BC0186E491E00C94AA0080E090E00895CE
:1003E0008F929F92AF92BF920F931F93CF93DF9301
:1003F000CDB7DEB7A1970FB6F894DEBF0FBECDBF65
:1004000019A2423008F44AE08E010F5D1F4F842E7E
:10041000912CA12CB12CA50194010E948A09E62FF0
:10042000B901CA0101501109EA3014F4E05D01C0BC
:10043000E95CD801EC93232B242B252B61F7C80111
:100440000E94DE01A1960FB6F894DEBF0FBECDBFAD
:10045000DF91CF911F910F91BF90AF909F908F90A0
:1004600008954F925F926F927F928F929F92AF9278
:10047000BF92CF92DF92EF92FF926B017C01B42E7C
:100480009B01AC010E94E90B882319F086E191E001
:1004900027C026013701E89477F82FEF3FEF4FE7A9
:1004A0005FE7C301B2010E94E90B81110DC02FEF7C
:1004B0003FEF4FE75FE7C301B2010E941F0A181622
:1004C0001CF48AE191E00CC02FEF3FEF4FE75FE4AF
:1004D000C701B6010E94770B181684F48EE191E0F3
:1004E000FF90EF90DF90CF90BF90AF909F908F9054
:1004F0007F906F905F904F900C94DE012FEF3FEF55
:100500004FE75FECC701B6010E941F0A87FDE6CFE7
:1005100020E030E0A901C701B6010E941F0A87FF51
:1005200011C0E0914601F09147010190F081E02D6A
:100530006DE286E491E009954C01F7FAF094F7F842
:10054000F09402C0812C912CA12C60E070E080E03E
:100550009FE3AB1441F020E030E040E251E40E9420
:10056000240AA394F6CF9B01AC01C701B6010E94F7
:10057000B3092B013C010E94960A6B017C010E9489
:10058000C50A9B01AC01C301B2010E94B2092B0153
:100590003C014AE0C701B6010E94F0017C01E80C71
:1005A000F91CBB2031F082E291E00E94DE01E80EEE
:1005B000F91EDB2CDD2021F120E030E040E251E4A7
:1005C000C301B2010E947C0B2B013C010E94960AE0
:1005D0004B01A12CB12C4AE0C501B4010E94F001ED
:1005E000E80EF91EC501B4010E94C50A9B01AC01C9
:1005F000C301B2010E94B2092B013C01DA94DACFA7
:10060000C701FF90EF90DF90CF90BF90AF909F9089
:100610008F907F906F905F904F9008950E94EE0BA7
:100620001F920F920FB60F9211242F933F934F9367
:100630005F936F937F938F939F93AF93BF93EF934A
:10064000FF9386E491E00E940D01FF91EF91BF912D
:10065000AF919F918F917F916F915F914F913F915A
:100660002F910F900FBE0F901F9018951F920F9211
:100670000FB60F9211242F938F939F93EF93FF93B5
:10068000E0915601F09157018081E0915C01F09179
:100690005D0182FD12C0908180915F018F5F8F7339
:1006A00020916001821751F0E0915F01F0E0EA5B78
:1006B000FE4F958F80935F0101C08081FF91EF9184
:1006C0009F918F912F910F900FBE0F901F901895B3
:1006D0001F920F920FB60F9211242F933F938F9377
:1006E0009F93AF93BF938091E3019091E401A09118
:1006F000E501B091E6013091320123E0230F2D375F
:1007000020F40196A11DB11D05C026E8230F029615
:10071000A11DB11D209332018093E3019093E40168
:10072000A093E501B093E60180912E0190912F01F5
:10073000A0913001B09131010196A11DB11D8093AE
:100740002E0190932F01A0933001B0933101BF91FE
:10075000AF919F918F913F912F910F900FBE0F906E
:100760001F9018951F920F920FB60F9211242F937E
:100770003F934F935F936F937F938F939F93AF9329
:10078000BF93EF93FF93E0910201F091030109956C
:10079000FF91EF91BF91AF919F918F917F916F9159
:1007A0005F914F913F912F910F900FBE0F901F902F
:1007B00018951F920F920FB60F9211242F933F930B
:1007C0004F935F936F937F938F939F93AF93BF9359
:1007D000EF93FF93E0910001F09101010995FF91E2
:1007E000EF91BF91AF919F918F917F916F915F91A9
:1007F0004F913F912F910F900FBE0F901F90189522
:100800001F920F920FB60F9211248F939F93809196
:100810002D01882361F0299A88EC90E00000000007
:10082000000000000197D1F7299810922D019F91A7
:100830008F910F900FBE0F901F901895E6E4F1E096
:100840001382128288EE93E0A0E0B0E08483958367
:10085000A683B7838AE091E09183808385EC90E062
:100860009587848784EC90E09787868780EC90E07A
:10087000918B808B81EC90E0938B828B82EC90E06B
:10088000958B848B86EC90E0978B868B118E128EE5
:10089000138E148EE3EFF1E08BEE91E0958F848F51
:1008A0008FEE91E0938F828F87EE91E0978F868F06
:1008B00010AE10AA11AA12AA13AA80E090E0AFE726
:1008C000B3E484AB95ABA6ABB7AB84E690E0A0E015
:1008D000B0E084A795A7A6A7B7A7118E108E80E0D9
:1008E00090E5A3E4B6E480839183A283B38340E0E0
:1008F00050E066E173E4448355836683778340E088
:1009000050E46CE975E44087518762877387848778
:100910009587A687B78780E090E0A0E7B1E4808B59
:10092000918BA28BB38B80E090E5A3E4B7E4848B3A
:10093000958BA68BB78B2FB7F8948091E30190919C
:10094000E401A091E501B091E6012FBF44A555A5B2
:1009500066A577A5841B950BA60BB70B80A391A367
:10096000A2A3B3A30895CF93DF93CDB7DEB72A97A1
:100970000FB6F894DEBF0FBECDBF789484B5826009
:1009800084BD84B5816084BD85B5826085BD85B533
:10099000816085BD80916E00816080936E001092B1
:1009A000810080918100826080938100809181002C
:1009B00081608093810080918000816080938000BD
:1009C0008091B10084608093B1008091B00081601B
:1009D0008093B00080917A00846080937A00809147
:1009E0007A00826080937A0080917A00816080939F
:1009F0007A0080917A00806880937A001092C1001A
:100A000060E083E00E94A10161E08DE00E94A1010D
:100A100060E08CE00E94A10161E08BE00E94A101F6
:100A200061E089E00E94A10161E088E00E94A101EB
:100A300087E890E090930301809302018091690020
:100A40008C6080936900E99A80E2809380008AE05C
:100A50008093810080E395E790938B0080938A00D8
:100A600084E080936F00E0915601F091570182E09D
:100A70008083E0915201F09153011082E091540182
:100A8000F091550180E1808310925E01E0915A015E
:100A9000F0915B0186E08083E0915801F09159016B
:100AA000808180618083E0915801F09159018081BB
:100AB00088608083E0915801F091590180818068BD
:100AC0008083E0915801F091590180818F7D80836E
:100AD0001092E7011092E8011092E9011092EA01E8
:100AE00080E090E0A2E0B3E480933501909336017A
:100AF000A0933701B093380180E090E0A6E1B3E421
:100B00008093390190933A01A0933B01B0933C014B
:100B10008AE097EDA3E2BDE3809341019093420107
:100B2000A0934301B093440180E090E0A8E4B3E4D3
:100B300080933D0190933E01A0933F01B09340010B
:100B400080912B0200910F0210911002811145C07B
:100B5000D801CD90DD90ED90FC90C0921702D0921C
:100B60001802E0921902F0921A02E0910D02F0913F
:100B70000E0280819181A281B38180931B029093A8
:100B80001C02A0931D02B0931E0280902702909039
:100B90002802A0902902B0902A02A5019401C70161
:100BA000B6010E94770B181684F080902302909073
:100BB0002402A0902502B0902602A5019401C7014D
:100BC000B6010E941F0A87FF08C080921702909208
:100BD0001802A0921902B0921A0281E080932B02AF
:100BE00080910B0290910C02019709F43FC0209173
:100BF000FF0130910002409101025091020260E039
:100C000070E0CB010E94B2096093FF017093000273
:100C1000809301029093020220910302309104021A
:100C2000409105025091060260E070E0CB010E9405
:100C3000B2096093030270930402809305029093BB
:100C4000060220910702309108024091090250915A
:100C50000A0260E070E0CB010E94B20960930702D3
:100C6000709308028093090290930A0281E090E059
:100C700090930C0280930B02C12CD12CE0E8EE2E55
:100C8000EFE3FE2EC0922302D0922402E0922502CE
:100C9000F0922602412CF8E45F2EFEE66F2EF6E479
:100CA0007F2E409227025092280260922902709271
:100CB0002A02F80180809180A280B380A301920172
:100CC000C501B4010E94770B18163CF4D8014D926F
:100CD0005D926D927C9213970FC020E030E040E867
:100CE0005FE3C501B4010E941F0A87FF05C0F80138
:100CF000C082D182E282F382809017029090180223
:100D0000A0901902B0901A02C0902702D090280239
:100D1000E0902902F0902A02A7019601C501B401D2
:100D20000E94770B181684F0C0902302D090240202
:100D3000E0902502F0902602A7019601C501B401BA
:100D40000E941F0A87FF08C0C0921702D0921802A3
:100D5000E0921902F0921A021FB7F89480913301C1
:100D6000811166C08EEA90E0FC0124914AE950E0CE
:100D7000FA01649130E0220F331F2A573F4FF901E7
:100D8000A591B4912C91622309F040C0ECE7F0E00A
:100D90002491FA014491FC0194919923B9F1222301
:100DA00039F1233091F038F42130A9F0223001F5E7
:100DB00084B58F7D12C0273091F02830A1F0243007
:100DC000B9F4809180008F7D03C0809180008F777F
:100DD000809380000DC084B58F7784BD09C0809159
:100DE000B0008F7703C08091B0008F7D8093B000FA
:100DF000E92FF0E0EE0FFF1FE859FF4FA591B491E6
:100E00008FB7F8949C91492B4C938FBF61E08AE097
:100E10000E94A1018CB580618CBD8CB580648CBDB5
:100E200061E08DE00E94A10161E08BE00E94A101E0
:100E3000809133018F5F809333011FBF8CB58C7F0E
:100E400081608CBD8DB58E7F8DBD8CB5837F8CBD53
:100E500090E1292E33243A9486E491E00E94F70031
:100E600018161906DCF486E491E00E94D50081335F
:100E700029F0823331F42092450103C0F1E0F09370
:100E80004501609104017091050180E090E04AE025
:100E90000E94F00184E291E00E94DE0180912B0229
:100EA000882309F40CC18FB7F8942091E3013091A5
:100EB000E4014091E5015091E6012D833E834F838B
:100EC00058878FBF8091130290911402A091150250
:100ED000B09116024D815E816F817885481B590B58
:100EE0006A0B7B0B80911F0290912002A09121023E
:100EF000B0912202481759076A077B0708F4DFC040
:100F0000E0910D02F0910E0280809180A280B3806A
:100F1000E0911102F0911202A501940160817181AA
:100F2000828193810E94B20969837A838B839C8337
:100F30002091030230910402409105025091060273
:100F40000E947C0B209117023091180240911902E7
:100F500050911A020E94B3096B017C016093170241
:100F6000709318028093190290931A02009127023D
:100F700010912802309129023A8740912A0249872C
:100F800098014A8559850E94770B181664F4C801A8
:100F9000AA85B9858093170290931802A09319022D
:100FA000B0931A0218C0409023025090240260901F
:100FB000250270902602A3019201C701B6010E948A
:100FC0001F0A87FF08C040921702509218026092D1
:100FD000190270921A022091FF0130910002409193
:100FE00001025091020269817A818B819C810E9469
:100FF0007C0B2091170230911802409119025091F8
:101000001A020E94B3096B017C0120911B023091EE
:101010001C0240911D0250911E02C501B4010E94A4
:10102000B2092091070230910802409109025091C3
:101030000A020E947C0B9B01AC01C701B6010E9411
:10104000B2096B017C0198014A8559850E94770B92
:101050001816B4F000912302109124025091250239
:101060005A878091260289879801452F582FB6010B
:10107000C7010E941F0A87FD03C08601EA86F98620
:10108000E0910F02F0911002C801AA85B985808312
:101090009183A283B38380921B0290921C02A09240
:1010A0001D02B0921E022D813E814F8158852093F2
:1010B000130230931402409315025093160280914C
:1010C0003401882309F423C128983EBC00000DB4E4
:1010D00007FEFDCF1EB53EBC00000DB407FEFDCFE0
:1010E0000EB5289A6091EB017091EC018091ED01B1
:1010F0009091EE010E94960A70930501609304019D
:10110000602F70E0759567957595679530E4139F2E
:10111000C0011124682B792B80E090E00E94C50A61
:1011200020E030E040E85EE30E947C0B20E030E00D
:1011300040EF50E40E94B2096B017C016093EF0123
:101140007093F0018093F1019093F201809035014A
:1011500090903601A0903701B0903801A50194011C
:101160000E941F0A87FF0CC08091450180FF31C09B
:101170008092E7019092E801A092E901B092EA0121
:10118000A5019401C701B6010E94770B18160CF552
:101190001091450110FF1DC0209141013091420185
:1011A00040914301509144016091E7017091E80141
:1011B0008091E9019091EA010E94B3096093E701EF
:1011C0007093E8018093E9019093EA011260109313
:1011D00045012091390130913A0140913B015091F4
:1011E0003C01C701B6010E94770B1816BCF4809130
:1011F000450181FF13C044E04093450180913D01CA
:1012000090913E01A0913F01B09140018093E70190
:101210009093E801A093E901B093EA0120E030E067
:1012200040E85FE360913D0170913E0180913F0194
:10123000909140010E94B2099B01AC01C701B60127
:101240000E94770B18167CF48091450182FF0BC039
:1012500058E0509345011092E7011092E801109276
:10126000E9011092EA0120E030E046E952E4C701CA
:10127000B6010E941F0A87FF05C08091450183FDCA
:10128000209245014AE0C701B6010E94310287E27F
:1012900091E00E94DE016091450170E080E090E005
:1012A00040E10E94F00187E291E00E94DE0160913E
:1012B00004017091050180E090E04AE00E94F00195
:1012C00087E291E00E94DE0142E060E070E583E4A5
:1012D00096E40E94310289E291E00E94DE0142E040
:1012E00060E070E086E193E40E94310289E291E0DF
:1012F0000E94DE0142E060E070E48CE995E40E9427
:10130000310284E291E00E94DE01109234010E94D9
:101310009701A2CDA1E21A2EAA1BBB1BFD010DC095
:10132000AA1FBB1FEE1FFF1FA217B307E407F50795
:1013300020F0A21BB30BE40BF50B661F771F881F71
:10134000991F1A9469F760957095809590959B0107
:10135000AC01BD01CF010895EE0FFF1F0590F49180
:10136000E02D09945058BB27AA270E94CA090C9463
:101370003D0B0E942F0B38F00E94360B20F039F401
:101380009F3F19F426F40C942C0B0EF4E095E7FB28
:101390000C94260BE92F0E944E0B58F3BA176207E4
:1013A00073078407950720F079F4A6F50C94700B69
:1013B0000EF4E0950B2EBA2FA02D0B01B901900170
:1013C0000C01CA01A0011124FF27591B99F0593FB4
:1013D00050F4503E68F11A16F040A22F232F342FFC
:1013E0004427585FF3CF469537952795A795F0404A
:1013F0005395C9F77EF41F16BA0B620B730B840B5F
:10140000BAF09150A1F0FF0FBB1F661F771F881F16
:10141000C2F70EC0BA0F621F731F841F48F487956E
:1014200077956795B795F7959E3F08F0B0CF939560
:10143000880F08F09927EE0F9795879508950E94D9
:10144000020B08F481E008950E94380A0C943D0BC9
:101450000E94360B58F00E942F0B40F029F45F3F9A
:1014600029F00C94260B51110C94710B0C942C0B3D
:101470000E944E0B68F39923B1F3552391F3951B0A
:10148000550BBB27AA2762177307840738F09F5FA5
:101490005F4F220F331F441FAA1FA9F335D00E2E12
:1014A0003AF0E0E832D091505040E695001CCAF77F
:1014B0002BD0FE2F29D0660F771F881FBB1F261742
:1014C00037074807AB07B0E809F0BB0B802DBF0119
:1014D000FF2793585F4F3AF09E3F510578F00C94E8
:1014E000260B0C94710B5F3FE4F3983ED4F3869582
:1014F00077956795B795F7959F5FC9F7880F911D09
:101500009695879597F90895E1E0660F771F881FF4
:10151000BB1F621773078407BA0720F0621B730BA7
:10152000840BBA0BEE1F88F7E09508950E94560BC6
:1015300088F09F5798F0B92F9927B751B0F0E1F094
:10154000660F771F881F991F1AF0BA95C9F714C044
:10155000B13091F00E94700BB1E008950C94700BC3
:10156000672F782F8827B85F39F0B93FCCF386957D
:1015700077956795B395D9F73EF4909580957095DA
:1015800061957F4F8F4F9F4F0895E89409C097FB57
:101590003EF490958095709561957F4F8F4F9F4F4A
:1015A0009923A9F0F92F96E9BB279395F69587958E
:1015B00077956795B795F111F8CFFAF4BB0F11F451
:1015C00060FF1BC06F5F7F4F8F4F9F4F16C08823F8
:1015D00011F096E911C0772321F09EE8872F762F2E
:1015E00005C0662371F096E8862F70E060E02AF06F
:1015F0009A95660F771F881FDAF7880F969587955B
:1016000097F90895990F0008550FAA0BE0E8FEEF2F
:1016100016161706E807F907C0F012161306E407B6
:10162000F50798F0621B730B840B950B39F40A26AF
:1016300061F0232B242B252B21F408950A2609F48D
:10164000A140A6958FEF811D811D089597F99F6791
:1016500080E870E060E008959FEF80EC089500243A
:101660000A941616170618060906089500240A9407
:1016700012161306140605060895092E0394000C8D
:1016800011F4882352F0BB0F40F4BF2B11F460FF1C
:1016900004C06F5F7F4F8F4F9F4F089557FD905845
:1016A000440F551F59F05F3F71F04795880F97FB26
:1016B000991F61F09F3F79F08795089512161306E0
:1016C0001406551FF2CF4695F1DF08C0161617060F
:1016D0001806991FF1CF8695710561050894089544
:1016E000E894BB2766277727CB0197F908950E94D6
:1016F000020B08F48FEF08950E948F0B0C943D0BA2
:101700000E942F0B38F00E94360B20F0952311F029
:101710000C94260B0C942C0B11240C94710B0E942E
:101720004E0B70F3959FC1F3950F50E0551F629FCC
:10173000F001729FBB27F00DB11D639FAA27F00D2A
:10174000B11DAA1F649F6627B00DA11D661F829F51
:101750002227B00DA11D621F739FB00DA11D621F36
:10176000839FA00D611D221F749F3327A00D611D53
:10177000231F849F600D211D822F762F6A2F112435
:101780009F5750409AF0F1F088234AF0EE0FFF1F68
:10179000BB1F661F771F881F91505040A9F79E3FBF
:1017A000510580F00C94260B0C94710B5F3FE4F311
:1017B000983ED4F3869577956795B795F795E79515
:1017C0009F5FC1F7FE2B880F911D9695879597F91E
:1017D00008950E94020B880B990B089581E090E018
:0A17E000F8940C94F30BF894FFCF7B
:1017EA00DD01DD01923B000000002E01AA00F70096
:1017FA00D500E90075016E616E00696E66006F764C
:0C180A0066002E000D0A000900200000FE
:00000001FF
