:100000000C945D000C94D9030C94B2030C948500FD
:100010000C9485000C9485000C9485000C9485004C
:100020000C9485000C9485000C9485000C9485003C
:100030000C9400040C9485000C9485000C948500AD
:100040000C9468030C9485000C9436030C941003F4
:100050000C9485000C9485000C9485000C9485000C
:100060000C9485000C9485000000000025002800F9
:100070002B0000000008000201000003040700003C
:1000800000000000000000000000240027002A00FB
:10009000010204081020408001020408102001021F
:1000A00004081020040404040404040402020202EC
:1000B00002020303030303031E0411241FBECFEF38
:1000C000D8E0DEBFCDBF11E0A0E0B1E0E8EAF9E1A1
:1000D00002C005900D92AC32B107D9F722E0ACE234
:1000E000B1E001C01D92AF35B207E1F710E0CDE5F8
:1000F000D0E004C02197FE010E948B0ACC35D107C5
:10010000C9F70E94B3040C94D20C0C9400008AE846
:1001100092E000000000000000000197D1F710926B
:1001200085001092840080910401909105019093C4
:100130008B0080938A0091E090932D0180912C0197
:100140008F5F80932C0180912C018F7011F490931C
:1001500034010895CF92DF92EF92FF920F931F9395
:10016000CF93DF936C017A018B01C0E0D0E0CE1514
:10017000DF0589F0D8016D918D01D601ED91FC91DB
:100180000190F081E02DC6010995892B11F47E01C3
:1001900002C02196ECCFC701DF91CF911F910F9143
:1001A000FF90EF90DF90CF900895FC01918D828DAC
:1001B000981761F0828DDF01A80FB11D5D968C91BB
:1001C000928D9F5F9F73928F90E008958FEF9FEFC6
:1001D0000895FC01918D828D981731F0828DE80F82
:1001E000F11D858D90E008958FEF9FEF0895FC013C
:1001F000918D228D892F90E0805C9F4F821B910909
:100200008F739927089589E791E00E94F70021E014
:10021000892B09F420E0822F0895FC01848DDF01F1
:10022000A80FB11DA35ABF4F2C91848D90E0019669
:100230008F739927848FA689B7892C93A089B18958
:100240008C9180648C93938D848D981306C0028862
:10025000F389E02D80818F7D80830895EF92FF9256
:100260000F931F93CF93DF93EC0181E0888F9B8DD9
:100270008C8D981305C0E889F989808185FD24C09B
:10028000F62E0B8D10E00F5F1F4F0F731127E02E1E
:100290008C8DE8120CC00FB607FCFACFE889F989FB
:1002A000808185FFF5CFCE010E940D01F1CF8B8DAE
:1002B000FE01E80FF11DE35AFF4FF0820B8FEA8930
:1002C000FB898081806207C0EE89FF896083E889AD
:1002D000F98980818064808381E090E0DF91CF9113
:1002E0001F910F91FF90EF900895CF93DF93EC0152
:1002F000888D8823C9F0EA89FB89808185FD05C046
:10030000A889B9898C9186FD0FC00FB607FCF5CF7F
:10031000808185FFF2CFA889B9898C9185FFEDCFC7
:10032000CE010E940D01E7CFDF91CF91089580E0CB
:1003300090E0892B29F00E94030181110C940000A8
:100340000895CF93DF9390E0FC01E057FF4F249195
:10035000FC01EC55FF4F8491882361F190E0880FF8
:10036000991FFC01EA57FF4FC591D491FC01E85950
:10037000FF4FA591B491611109C09FB7F89488818E
:10038000209582238883EC912E230BC0623061F488
:100390009FB7F8943881822F809583238883EC91CE
:1003A0002E2B2C939FBF06C08FB7F894E8812E2B7D
:1003B00028838FBFDF91CF9108950895009769F04A
:1003C000FC0101900020E9F73197AF01481B590B60
:1003D000BC0189E791E00C94AA0080E090E00895C8
:1003E0008F929F92AF92BF920F931F93CF93DF9301
:1003F000CDB7DEB7A1970FB6F894DEBF0FBECDBF65
:1004000019A2423008F44AE08E010F5D1F4F842E7E
:10041000912CA12CB12CA50194010E94690AE62F10
:10042000B901CA0101501109EA3014F4E05D01C0BC
:10043000E95CD801EC93232B242B252B61F7C80111
:100440000E94DE01A1960FB6F894DEBF0FBECDBFAD
:10045000DF91CF911F910F91BF90AF909F908F90A0
:1004600008954F925F926F927F928F929F92AF9278
:10047000BF92CF92DF92EF92FF926B017C01B42E7C
:100480009B01AC010E94C80C882319F086E191E021
:1004900027C026013701E89477F82FEF3FEF4FE7A9
:1004A0005FE7C301B2010E94C80C81110DC02FEF9C
:1004B0003FEF4FE75FE7C301B2010E94FE0A181643
:1004C0001CF48AE191E00CC02FEF3FEF4FE75FE4AF
:1004D000C701B6010E94560C181684F48EE191E013
:1004E000FF90EF90DF90CF90BF90AF909F908F9054
:1004F0007F906F905F904F900C94DE012FEF3FEF55
:100500004FE75FECC701B6010E94FE0A87FDE6CF08
:1005100020E030E0A901C701B6010E94FE0A87FF72
:1005200011C0E0917901F0917A010190F081E02D04
:100530006DE289E791E009954C01F7FAF094F7F83C
:10054000F09402C0812C912CA12C60E070E080E03E
:100550009FE3AB1441F020E030E040E251E40E9420
:10056000030BA394F6CF9B01AC01C701B6010E9417
:10057000920A2B013C010E94750B6B017C010E94C9
:10058000A40B9B01AC01C301B2010E94910A2B0193
:100590003C014AE0C701B6010E94F0017C01E80C71
:1005A000F91CBB2031F082E291E00E94DE01E80EEE
:1005B000F91EDB2CDD2021F120E030E040E251E4A7
:1005C000C301B2010E945B0C2B013C010E94750B20
:1005D0004B01A12CB12C4AE0C501B4010E94F001ED
:1005E000E80EF91EC501B4010E94A40B9B01AC01E9
:1005F000C301B2010E94910A2B013C01DA94DACFC7
:10060000C701FF90EF90DF90CF90BF90AF909F9089
:100610008F907F906F905F904F9008950E94CD0CC7
:100620001F920F920FB60F9211242F933F934F9367
:100630005F936F937F938F939F93AF93BF93EF934A
:10064000FF9389E791E00E940D01FF91EF91BF9127
:10065000AF919F918F917F916F915F914F913F915A
:100660002F910F900FBE0F901F9018951F920F9211
:100670000FB60F9211242F938F939F93EF93FF93B5
:10068000E0918901F0918A018081E0918F01F091E0
:10069000900182FD12C09081809192018F5F8F73D3
:1006A00020919301821751F0E0919201F0E0E75818
:1006B000FE4F958F8093920101C08081FF91EF9151
:1006C0009F918F912F910F900FBE0F901F901895B3
:1006D0001F920F920FB60F9211242F933F938F9377
:1006E0009F93AF93BF938091160290911702A091B0
:1006F0001802B09119023091320126E0230F2D37F4
:1007000020F40296A11DB11D05C029E8230F039610
:10071000A11DB11D20933201809316029093170200
:10072000A0931802B093190280912E0190912F018D
:10073000A0913001B09131010196A11DB11D8093AE
:100740002E0190932F01A0933001B0933101BF91FE
:10075000AF919F918F913F912F910F900FBE0F906E
:100760001F9018951F920F920FB60F9211242F937E
:100770003F934F935F936F937F938F939F93AF9329
:10078000BF93EF93FF93E0910201F091030109956C
:10079000FF91EF91BF91AF919F918F917F916F9159
:1007A0005F914F913F912F910F900FBE0F901F902F
:1007B00018951F920F920FB60F9211242F933F930B
:1007C0004F935F936F937F938F939F93AF93BF9359
:1007D000EF93FF93E0910001F09101010995FF91E2
:1007E000EF91BF91AF919F918F917F916F915F91A9
:1007F0004F913F912F910F900FBE0F901F90189522
:100800001F920F920FB60F9211248F939F93809196
:100810002D01882361F0299A88EC90E00000000007
:10082000000000000197D1F7299810922D019F91A7
:100830008F910F900FBE0F901F901895E9E7F1E090
:100840001382128288EE93E0A0E0B0E08483958367
:10085000A683B7838AE091E09183808385EC90E062
:100860009587848784EC90E09787868780EC90E07A
:10087000918B808B81EC90E0938B828B82EC90E06B
:10088000958B848B86EC90E0978B868B118E128EE5
:10089000138E148EE6E2F2E08EE192E0958F848F63
:1008A00082E292E0938F828F8AE192E0978F868F27
:1008B00010AE10AA11AA12AA13AA80E090E0AFE726
:1008C000B3E484AB95ABA6ABB7AB84E690E0A0E015
:1008D000B0E084A795A7A6A7B7A7118E108E83ECCA
:1008E00095EDA3E2B4E480839183A283B3834CE9C2
:1008F00054E464E072E4448355836683778340E084
:1009000050E068EC72E44087518762877387848780
:100910009587A687B7878AEF90EAA3E5B0E4808B36
:10092000918BA28BB38B80E090E0AAE7B4E4848B38
:10093000958BA68BB78B2FB7F89480911602909168
:100940001702A0911802B09119022FBF44A555A516
:1009500066A577A5841B950BA60BB70B80A391A367
:10096000A2A3B3A30895CF93DF93CDB7DEB72A97A1
:100970000FB6F894DEBF0FBECDBF789484B5826009
:1009800084BD84B5816084BD85B5826085BD85B533
:10099000816085BD80916E00816080936E001092B1
:1009A000810080918100826080938100809181002C
:1009B00081608093810080918000816080938000BD
:1009C0008091B10084608093B1008091B00081601B
:1009D0008093B00080917A00846080937A00809147
:1009E0007A00826080937A0080917A008E7F809373
:1009F0007A0080917A00806880937A001092C1001A
:100A000060E083E00E94A10161E08DE00E94A1010D
:100A100060E08CE00E94A10161E08BE00E94A101F6
:100A200061E089E00E94A10161E088E00E94A101EB
:100A300087E890E090930301809302018091690020
:100A40008C6080936900E99A80E2809380008AE05C
:100A50008093810080E395E790938B0080938A00D8
:100A600084E080936F00E0918901F0918A0182E037
:100A70008083E0918501F09186011082E0918701E9
:100A8000F091880188E0808310929101E0918D01BE
:100A9000F0918E0186E08083E0918B01F0918C01D2
:100AA000808180618083E0918B01F0918C01808155
:100AB00088608083E0918B01F0918C018081806857
:100AC0008083E0918B01F0918C0180818F7D808308
:100AD00010921A0210921B0210921C0210921D0218
:100AE00080E18093560100E010E026E133E40093BA
:100AF000460110934701209348013093490140E09B
:100B000050E064E373E440934A0150934B016093D7
:100B10004C0170934D014AE057ED63E27DE3409351
:100B20005201509353016093540170935501C12CAD
:100B3000D12CA6E6EA2EA3E4FA2EC0924E01D09262
:100B40004F01E0925001F092510180936701C12C56
:100B5000D12CB0EFEB2EB2E4FB2EC0925701D09215
:100B60005801E0925901F0925A0100935B011093F1
:100B70005C0120935D0130935E01409363015093CB
:100B80006401609365017093660140E050E069E3A1
:100B900073E440935F01509360016093610170932F
:100BA00062018093450180E090E0A6E9B2E4809381
:100BB000350190933601A0933701B093380180E05E
:100BC00090E0A4EBB2E48093390190933A01A093B2
:100BD0003B01B0933C018CEA95ECA7E2B7E380932C
:100BE000410190934201A0934301B093440180E0FE
:100BF00090E0AEEBB2E480933D0190933E01A09370
:100C00003F01B093400181E1E7E5F1E0A8E6B1E002
:100C100001900D928A95E1F780915E020091420267
:100C200010914302811145C0D801CD90DD90ED9027
:100C3000FC90C0924A02D0924B02E0924C02F09299
:100C40004D02E0914002F091410280819181A281A8
:100C5000B38180934E0290934F02A0935002B093C1
:100C6000510280905A0290905B02A0905C02B0907A
:100C70005D02A5019401C701B6010E94560C181629
:100C800084F08090560290905702A0905802B09045
:100C90005902A5019401C701B6010E94FE0A87FF0F
:100CA00008C080924A0290924B02A0924C02B092ED
:100CB0004D0281E080935E0280913E0290913F025E
:100CC000019709F43FC020913202309133024091E4
:100CD00034025091350260E070E0CB010E94910A2D
:100CE0006093320270933302809334029093350202
:100CF00020913602309137024091380250913902EA
:100D000060E070E0CB010E94910A6093360270931C
:100D10003702809338029093390220913A02309141
:100D20003B0240913C0250913D0260E070E0CB01FB
:100D30000E94910A60933A0270933B0280933C02B6
:100D400090933D0281E090E090933F0280933E02B9
:100D5000C12CD12CE0E8EE2EEFE3FE2EC09256021D
:100D6000D0925702E0925802F0925902412CF8E4D6
:100D70005F2EFEE66F2EF6E47F2E40925A025092CE
:100D80005B0260925C0270925D02F801808091804B
:100D9000A280B380A3019201C501B4010E94560C48
:100DA00018163CF4D8014D925D926D927C92139787
:100DB0000FC020E030E040E85FE3C501B4010E94CD
:100DC000FE0A87FF05C0F801C082D182E282F38269
:100DD00080904A0290904B02A0904C02B0904D023D
:100DE000C0905A02D0905B02E0905C02F0905D02ED
:100DF000A7019601C501B4010E94560C181684F093
:100E0000C0905602D0905702E0905802F0905902DC
:100E1000A7019601C501B4010E94FE0A87FF08C020
:100E2000C0924A02D0924B02E0924C02F0924D02E4
:100E30006091520270915302809154029091550238
:100E40000E94A40B9B01AC0160E070E085E093E49C
:100E50000E94030B6B017C019B01AC016091360287
:100E60007091370280913802909139020E945B0C98
:100E70006093360270933702809338029093390260
:100E8000A701960160913A0270913B0280913C0269
:100E900090913D020E94030B60933A0270933B02D3
:100EA00080933C0290933D0285E890E0A0E0B0E0A2
:100EB0008093520290935302A0935402B093550230
:100EC0001FB7F89480913301811166C08EEA90E0DB
:100ED000FC0124914AE950E0FA01649130E0220FCC
:100EE000331F2A573F4FF901A591B4912C916223EA
:100EF00009F040C0ECE7F0E02491FA014491FC01D4
:100F000094919923B9F1222339F1233091F038F4E7
:100F10002130A9F0223001F584B58F7D12C0273031
:100F200091F02830A1F02430B9F4809180008F7DB9
:100F300003C0809180008F77809380000DC084B5BE
:100F40008F7784BD09C08091B0008F7703C08091F6
:100F5000B0008F7D8093B000E92FF0E0EE0FFF1F0F
:100F6000E859FF4FA591B4918FB7F8949C91492B04
:100F70004C938FBF61E08AE00E94A1018CB5806133
:100F80008CBD8CB580648CBD61E08DE00E94A101B8
:100F900061E08BE00E94A101809133018F5F80931B
:100FA00033011FBF8CB58C7F81608CBD8DB58E7F6A
:100FB0008DBD8CB5837F8CBD91E1392E22242A947E
:100FC00089E791E00E94F700181619060CF043C05B
:100FD00089E791E00E94D500182FE0917901F09106
:100FE0007A010190F081E02D682F89E791E0099561
:100FF00084E291E00E94DE011333A1F044F4113346
:1010000069F01233D9F428E02093780117C0143323
:1010100061F0153399F4E5E3F1E009C0F1E0F093F4
:1010200078010CC0E7E5F1E002C0E6E4F1E0A8E6F3
:10103000B1E0832D01900D928A95E1F76091040152
:101040007091050180E090E04AE00E94F00184E2A6
:1010500091E00E94DE0180915E02882309F40CC1B8
:101060008FB7F89420911602309117024091180220
:10107000509119022D833E834F8358878FBF8091F3
:10108000460290914702A0914802B09149024D81D9
:101090005E816F817885481B590B6A0B7B0B8091B1
:1010A000520290915302A0915402B09155024817F8
:1010B00059076A077B0708F4DFC0E0914002F0910E
:1010C000410280809180A280B380E0914402F0913F
:1010D0004502A501940160817181828193810E9402
:1010E000910A69837A838B839C83209136023091A5
:1010F000370240913802509139020E945B0C2091D6
:101100004A0230914B0240914C0250914D020E9494
:10111000920A6B017C0160934A0270934B028093A8
:101120004C0290934D0200915A0210915B02309153
:101130005C023A8740915D02498798014A8559854A
:101140000E94560C181664F4C801AA85B9858093CC
:101150004A0290934B02A0934C02B0934D0218C0E8
:101160004090560250905702609058027090590279
:10117000A3019201C701B6010E94FE0A87FF08C0C1
:1011800040924A0250924B0260924C0270924D0281
:101190002091320230913302409134025091350255
:1011A00069817A818B819C810E945B0C20914A022B
:1011B00030914B0240914C0250914D020E94920A94
:1011C0006B017C0120914E0230914F024091500200
:1011D00050915102C501B4010E94910A20913A0236
:1011E00030913B0240913C0250913D020E945B0CC9
:1011F0009B01AC01C701B6010E94910A6B017C0101
:1012000098014A8559850E94560C1816B4F0009131
:10121000560210915702509158025A8780915902F4
:1012200089879801452F582FB601C7010E94FE0AF1
:1012300087FD03C08601EA86F986E0914202F091BB
:101240004302C801AA85B98580839183A283B383B1
:1012500080924E0290924F02A0925002B0925102A0
:101260002D813E814F81588520934602309347025D
:10127000409348025093490280913401882309F435
:1012800025C128982EBC00000DB407FEFDCF1EB569
:101290002EBC00000DB407FEFDCF0EB5289A60915C
:1012A0001E0270911F0280912002909121020E94E3
:1012B000750B7093050160930401602F70E07595C4
:1012C00067957595679530E4139FC0011124682BCD
:1012D000792B80E090E00E94A40B20E030E040E811
:1012E0005EE30E945B0C20E030E040EF50E40E949F
:1012F000910A6B017C016093220270932302809318
:101300002402909325028090680190906901A0903A
:101310006A01B0906B01A50194010E94FE0A87FF4B
:101320000CC08091780180FF31C080921A029092A7
:101330001B02A0921C02B0921D02A5019401C701DC
:10134000B6010E94560C18160CF51091780110FF8A
:101350001DC020917401309175014091760150912A
:10136000770160911A0270911B0280911C0290918A
:101370001D020E94920A60931A0270931B028093CE
:101380001C0290931D0212601093780120916C0151
:1013900030916D0140916E0150916F01C701B6010E
:1013A0000E94560C1816BCF48091780181FF13C07E
:1013B00044E0409378018091700190917101A09177
:1013C0007201B091730180931A0290931B02A09353
:1013D0001C02B0931D0220E030E040E85FE3609122
:1013E00070017091710180917201909173010E945E
:1013F000910A9B01AC01C701B6010E94560C181658
:101400007CF48091780182FF0BC058E05093780102
:1014100010921A0210921B0210921C0210921D02CE
:1014200020E030E046E952E4C701B6010E94FE0A1E
:1014300087FF07C08091780183FF03C080E180931C
:1014400078014AE0C701B6010E94310287E291E0CB
:101450000E94DE016091780170E080E090E040E160
:101460000E94F00187E291E00E94DE016091040198
:101470007091050180E090E04AE00E94F00187E26F
:1014800091E00E94DE0142E063EC75ED83E294E4BA
:101490000E94310289E291E00E94DE0142E06CE9A3
:1014A00074E484E092E40E94310289E291E00E94B7
:1014B000DE0142E060E070E088EC92E40E943102DC
:1014C00084E291E00E94DE01109234010E949701B3
:1014D00077CDA1E21A2EAA1BBB1BFD010DC0AA1FCE
:1014E000BB1FEE1FFF1FA217B307E407F50720F08D
:1014F000A21BB30BE40BF50B661F771F881F991F08
:101500001A9469F760957095809590959B01AC0150
:10151000BD01CF010895EE0FFF1F0590F491E02D5E
:1015200009945058BB27AA270E94A90A0C941C0CA6
:101530000E940E0C38F00E94150C20F039F49F3FE9
:1015400019F426F40C940B0C0EF4E095E7FB0C94C4
:10155000050CE92F0E942D0C58F3BA176207730788
:101560008407950720F079F4A6F50C944F0C0EF43F
:10157000E0950B2EBA2FA02D0B01B90190010C01A3
:10158000CA01A0011124FF27591B99F0593F50F4BB
:10159000503E68F11A16F040A22F232F342F442713
:1015A000585FF3CF469537952795A795F04053950B
:1015B000C9F77EF41F16BA0B620B730B840BBAF0DB
:1015C0009150A1F0FF0FBB1F661F771F881FC2F746
:1015D0000EC0BA0F621F731F841F48F4879577955A
:1015E0006795B795F7959E3F08F0B0CF9395880F14
:1015F00008F09927EE0F9795879508950E94E10BC3
:1016000008F481E008950E94170B0C941C0C0E94B2
:10161000150C58F00E940E0C40F029F45F3F29F0A1
:101620000C94050C51110C94500C0C940B0C0E9452
:101630002D0C68F39923B1F3552391F3951B550BAA
:10164000BB27AA2762177307840738F09F5F5F4F95
:10165000220F331F441FAA1FA9F335D00E2E3AF0D4
:10166000E0E832D091505040E695001CCAF72BD0EC
:10167000FE2F29D0660F771F881FBB1F261737073D
:101680004807AB07B0E809F0BB0B802DBF01FF276F
:1016900093585F4F3AF09E3F510578F00C94050C3B
:1016A0000C94500C5F3FE4F3983ED4F38695779505
:1016B0006795B795F7959F5FC9F7880F911D969528
:1016C000879597F90895E1E0660F771F881FBB1F84
:1016D000621773078407BA0720F0621B730B840B31
:1016E000BA0BEE1F88F7E09508950E94350C88F03C
:1016F0009F5798F0B92F9927B751B0F0E1F0660FD6
:10170000771F881F991F1AF0BA95C9F714C0B13016
:1017100091F00E944F0CB1E008950C944F0C672F8C
:10172000782F8827B85F39F0B93FCCF38695779545
:101730006795B395D9F73EF490958095709561952E
:101740007F4F8F4F9F4F0895E89409C097FB3EF459
:1017500090958095709561957F4F8F4F9F4F9923FE
:10176000A9F0F92F96E9BB279395F695879577957C
:101770006795B795F111F8CFFAF4BB0F11F460FF3C
:101780001BC06F5F7F4F8F4F9F4F16C0882311F094
:1017900096E911C0772321F09EE8872F762F05C0A8
:1017A000662371F096E8862F70E060E02AF09A9543
:1017B000660F771F881FDAF7880F9695879597F938
:1017C0000895990F0008550FAA0BE0E8FEEF1616D2
:1017D0001706E807F907C0F012161306E407F50725
:1017E00098F0621B730B840B950B39F40A2661F099
:1017F000232B242B252B21F408950A2609F4A1403C
:10180000A6958FEF811D811D089597F99F6780E848
:1018100070E060E008959FEF80EC089500240A9442
:101820001616170618060906089500240A941216BB
:101830001306140605060895092E0394000C11F4EE
:10184000882352F0BB0F40F4BF2B11F460FF04C09B
:101850006F5F7F4F8F4F9F4F089557FD9058440FF4
:10186000551F59F05F3F71F04795880F97FB991FFF
:1018700061F09F3F79F087950895121613061406BC
:10188000551FF2CF4695F1DF08C016161706180649
:10189000991FF1CF86957105610508940895E89424
:1018A000BB2766277727CB0197F908950E94E10BA4
:1018B00008F48FEF08950E946E0C0C941C0C0E948B
:1018C0000E0C38F00E94150C20F0952311F00C94AA
:1018D000050C0C940B0C11240C94500C0E942D0C34
:1018E00070F3959FC1F3950F50E0551F629FF00173
:1018F000729FBB27F00DB11D639FAA27F00DB11D8C
:10190000AA1F649F6627B00DA11D661F829F222714
:10191000B00DA11D621F739FB00DA11D621F839F9B
:10192000A00D611D221F749F3327A00D611D231F71
:10193000849F600D211D822F762F6A2F11249F57BF
:1019400050409AF0F1F088234AF0EE0FFF1FBB1FC2
:10195000661F771F881F91505040A9F79E3F510581
:1019600080F00C94050C0C94500C5F3FE4F3983E0F
:10197000D4F3869577956795B795F795E7959F5F2B
:10198000C1F7FE2B880F911D9695879597F90895BD
:101990000E94E10B880B990B089581E090E0F89488
:0819A0000C94D20CF894FFCF67
:1019A800DD01DD01923B000000002E01AA00F700D6
:1019B800D500E90075016E616E00696E66006F768C
:0C19C80066002E000D0A0009002000003F
:00000001FF
